S01800004F6E6C696E6531355F50726F6A6563742E737265630B
S11300000C943A000C9419060C9442060C946B065A
S11300100C94B2080C9489080C943B080C94E907DE
S11300200C9412080C94C0070C94F9060C94D00696
S11300300C9457000C9457000C9457000C945700E0
S11300400C94F9030C9457000C9457000C9457002B
S11300500C947F052C072F073B073E0744074707EF
S11300605007530759075C07620765076E07830744
S11300707407770711241FBECFE5D8E0DEBFCDBFDC
S113008011E0A0E6B0E0EAE6F3E102C005900D92CB
S1130090A634B107D9F721E0A6E4B1E001C01D926E
S11300A0A538B207E1F70E94DB030C94B3090C9462
S11300B0000081E080934601809147018F5F809327
S11300C04701809147018F5F80936100089580917B
S11300D06000809580936000809160008A3A31F4DA
S11300E00E943B028BB78F7B8BBF08958091600089
S11300F0853571F48BB780648BBF0E943B0240E866
S113010050E061E081E00E943E0281E0809346017C
S11301100895809147010E946A0246E850E065E034
S113012081E00E943E022FEF8EE994E2215080404C
S11301309040E1F700C000000E943B028BB780644E
S11301408BBF8BB780688BBF69E570E080E00E944D
S1130150040667E670E081E00E94040640E850E08F
S113016061E081E00E943E02E0914701F0E0EE0F81
S1130170FF1FEE59FF4F4081518161E082E00C94F2
S11301803E0280914601813001F510924601809132
S113019047018F3011F410924701F89440E161E077
S11301A082E00E944802E0914701F0E0EE0FFF1F59
S11301B0EE59FF4F4081518161E082E00E943E028E
S11301C07894809147010E946A02809160008A3A83
S11301D031F5F8944EE850E061E081E00E943E027F
S11301E0789460916100809147010E94030380919B
S11301F0610080934701809161008F5F809361006B
S11302002FEF8EE994E2215080409040E1F700C046
S11302100000809161008F3011F410926100089504
S1130220AF92BF92DF92EF92FF920F931F93CF93FF
S1130230DF93982F9F70D92EC82FC295CF7060E09E
S113024081E00E94000589E1E82E81E0F82E570143
S113025003E010E0D0E0BE01002E02C07595679562
S11302600A94E2F76170F50182915F010E94000532
S11302700150110980F761E082E00E9400058FECD3
S113028097E00197F1F700C0000060E082E00E946F
S11302900005EFECF7E03197F1F700C00000C3E090
S11302A0D0E00D2D10E0B8010C2E02C075956795B5
S11302B00A94E2F76170F70182917F010E940005C0
S11302C0219788F761E082E00E9400058FEC97E0B7
S11302D00197F1F700C0000060E082E00E94000591
S11302E0EFECF7E03197F1F700C00000DF91CF9118
S11302F01F910F91FF90EF90DF90BF90AF90089502
S1130300AF92BF92DF92EF92FF920F931F93CF931E
S1130310DF93982F9F70D92EC82FC295CF7061E0BC
S113032081E00E94000589E1E82E81E0F82E570162
S113033003E010E0D0E0BE01002E02C07595679581
S11303400A94E2F76170F50182915F010E94000551
S11303500150110980F761E082E00E9400058FECF2
S113036097E00197F1F700C0000060E082E00E948E
S11303700005EFECF7E03197F1F700C00000C3E0AF
S1130380D0E00D2D10E0B8010C2E02C075956795D4
S11303900A94E2F76170F70182917F010E940005DF
S11303A0219788F761E082E00E9400058FEC97E0D6
S11303B00197F1F700C0000060E082E00E940005B0
S11303C0EFECF7E03197F1F700C00000DF91CF9137
S11303D01F910F91FF90EF90DF90BF90AF90089521
S11303E02FE788E391E0215080409040E1F700C07E
S11303F0000082E00E94100188E20E9410018FEC4C
S113040097E00197F1F700C000008CE00E94100112
S11304108FEC97E00197F1F700C0000081E00E94A3
S113042010018FE097E20197F1F700C0000086E029
S11304300C9410010F931F93CF938C01C0E0F8012B
S1130440EC0FF11D8081882321F00E948001CF5F91
S1130450F6CFCF911F910F910895813021F48FEF42
S1130460860F806805C0823029F48FEF860F806C78
S11304700C941001089581E00C941001CF93DF9344
S1130480EA010E942D02CE01DF91CF910C941A0251
S11304900F931F93CF93DF93D82F162F042F0E940F
S11304A02D02C0E0C01729F080E20E948001CF5FD6
S11304B0F9CF612F8D2FDF91CF911F910F910C9464
S11304C02D0283E00E94B50683E00E948A0783E040
S11304D00C94A5078F3020F590E0FC01EE0FFF1F70
S11304E08E0F9F1FFC01E75EFE4F808180958CBFBD
S11304F021818FEF90E0AC01421B51095BBD4ABDE5
S11305002281821B910999BD88BD80819181A2813C
S11305108093580190935901A0935A0180E0089563
S113052081E00895FC01892B81F0808180958CBF46
S113053081812FEF30E0A901481B51095BBD4ABD01
S11305408281281B310939BD28BD0895CF93C091FC
S11305504801C930B1F48091550190915601A091A0
S113056057018093580190935901A0935A018091A7
S113057049010E946A0289B78F7B89BF10924801A2
S113058040C080914F01811106C090914C0180912F
S11305905201890F07C0813039F480914C01909148
S11305A05201891B80934C0180915001811106C036
S11305B090914D0180915301890F07C0813039F426
S11305C080914D0190915301891B80934D0180913D
S11305D05101811106C090914E0180915401890FFF
S11305E007C0813039F480914E0190915401891BE8
S11305F080934E018CE491E00E949202CF5FC093FD
S11306004801CF9108956F927F928F92CF92DF929B
S1130610EF92FF920F931F93CF93DF93D82FC62FA0
S11306200E946A02DF3008F0B9C0CF3008F0B6C0CB
S113063080914A0190914B016AE070E00E947F0929
S11306406B01E12CF12CC09349012D2F30E0F9010D
S1130650EE0FFF1FCF01820F931F875E9E4FDC01B9
S11306606D907D908C9060925801709259018092A7
S11306705A0160924C0170924D0180924E014C2FB0
S113068050E0DA01AA0FBB1FED01C40FD51F8E0184
S1130690075E1E4FE801688079808A806092550168
S11306A0709256018092570168EE73E070934B018B
S11306B060934A0169B7606469BFEC019881E801FD
S11306C08881891748F4981B892F6AE00E9473096E
S11306D08093520181E00CC0981748F4891B6AE0AA
S11306E00E9473098093520110924F0103C082E06B
S11306F080934F01EF01C20FD31FC75EDE4F998174
S1130700ED01C40FD51FC75EDE4F8981891748F4F8
S1130710981B892F6AE00E9473098093530181E03A
S11307200CC0981748F4891B6AE00E9473098093EF
S113073053011092500103C082E0809350012E0FA8
S11307403F1FF901E75EFE4F92814A0F5B1FDA01FA
S1130750A75EBE4F12968C91891748F4981B892F77
S11307606AE00E9473098093540181E00DC09817D8
S113077050F49181891B6AE00E94730980935401AB
S11307801092510103C082E08093510146EA52E085
S1130790C701B6010E941C0980E001C081E0DF911D
S11307A0CF911F910F91FF90EF90DF90CF908F909A
S11307B07F906F9008950E9422040E94F0010E948D
S11307C061020E94F80562E081E00E94A80562E0EF
S11307D083E00E94940662E085E00E94220767E0BD
S11307E080E00E94640878940E9489000E94C100FD
S11307F0FDCF1F920F920FB60F9211242F933F93A8
S11308004F935F936F937F938F939F93AF93BF9314
S1130810EF93FF93E0915B01F0915C01309709F055
S11308200995FF91EF91BF91AF919F918F917F9126
S11308306F915F914F913F912F910F900FBE0F9049
S11308401F901895E3EFF0E040E081E090E05191D3
S1130850342F369536953695242F2770513009F468
S113086043C020F0523009F482C0C5C0323001F1D7
S1130870333061F1313071F05AB3BC0102C0660FFC
S1130880771F2A95E2F79B01352F322B3ABB3BB3F6
S113089020953DC057B3BC0102C0660F771F2A954F
S11308A0E2F79B01352F322B37BB38B320953EC07E
S11308B054B3BC0102C0660F771F2A95E2F79B016F
S11308C0352F322B34BB35B320953FC051B3BC0117
S11308D002C0660F771F2A95E2F79B01352F322B52
S11308E031BB32B3209541C0323011F1333081F144
S11308F0313079F05AB3BC0102C0660F771F2A95D4
S1130900E2F79B012095352F32233ABB3BB32323D7
S113091042C057B3BC0102C0660F771F2A95E2F7A5
S11309209B012095352F322337BB38B3232343C093
S113093054B3BC0102C0660F771F2A95E2F79B01EE
S11309402095352F322334BB35B3232325BB53C025
S113095051B3BC0102C0660F771F2A95E2F79B01D1
S11309602095352F322331BB32B3232343C0323099
S113097021F1333089F1313081F05AB3BC0102C026
S1130980660F771F2A95E2F79B01362F30953523A2
S11309903ABB3BB3232B2BBB2EC057B3BC0102C0C5
S11309A0660F771F2A95E2F79B01362F3095352382
S11309B037BB38B3232B28BB1EC054B3BC0102C0C1
S11309C0660F771F2A95E2F79B01362F3095352362
S11309D034BB35B3232BBACF51B3BC0102C0660F6D
S11309E0771F2A95E2F79B01362F3095352331BBCB
S11309F032B3232B22BB4F5F403209F028CF089536
S1130A00982F96959695969587706130C1F591309B
S1130A1091F028F09230D9F0933029F108954BB336
S1130A2021E030E0B90102C0660F771F8A95E2F732
S1130A30CB01842B38C048B321E030E0B90102C0B7
S1130A40660F771F8A95E2F7CB01842B3AC045B332
S1130A5021E030E0B90102C0660F771F8A95E2F702
S1130A60CB01842B3CC042B321E030E0B90102C089
S1130A70660F771F8A95E2F7CB01842B3EC0913035
S1130A80A1F028F09230F9F0933059F108954BB366
S1130A9021E030E0B90102C0660F771F8A95E2F7C2
S1130AA0CB01809584238BBB089548B321E030E0CB
S1130AB0B90102C0660F771F8A95E2F7CB018095D2
S1130AC0842388BB089545B321E030E0B90102C016
S1130AD0660F771F8A95E2F7CB018095842385BB47
S1130AE0089542B321E030E0B90102C0660F771FD8
S1130AF08A95E2F7CB018095842382BB08951F92E7
S1130B000F920FB60F9211242F933F934F935F933D
S1130B106F937F938F939F93AF93BF93EF93FF93C1
S1130B20E0915D01F0915E01309709F00995FF9124
S1130B30EF91BF91AF919F918F917F916F915F9151
S1130B404F913F912F910F900FBE0F901F901895CA
S1130B50813011F118F08230E1F108958BB780648F
S1130B608BBF613049F028F0623069F0633071F076
S1130B70089585B78E7F02C085B7816085BF85B72C
S1130B808D7F85BF089585B78E7F02C085B781604C
S1130B9085BF85B78260F5CF8BB780688BBF613026
S1130BA049F028F0623061F0633069F0089585B748
S1130BB08B7F02C085B7846085BF85B7877FE1CF0F
S1130BC085B78B7F02C085B7846085BF85B7886091
S1130BD0D8CF8BB780628BBF623019F0633021F0BD
S1130BE0089584B78F7B02C084B7806484BF08955E
S1130BF062E080E00E94A80562E081E00E94A8050E
S1130C0062E082E00C94A805813049F018F082304B
S1130C1059F008957093640160936301089570938B
S1130C2062016093610108957093600160935F01B4
S1130C3008951F920F920FB60F9211242F933F9392
S1130C404F935F936F937F938F939F93AF93BF93D0
S1130C50EF93FF93E0916301F0916401309709F001
S1130C600995FF91EF91BF91AF919F918F917F91E2
S1130C706F915F914F913F912F910F900FBE0F9005
S1130C801F9018951F920F920FB60F9211242F9355
S1130C903F934F935F936F937F938F939F93AF9300
S1130CA0BF93EF93FF93E0916101F091620130975C
S1130CB009F00995FF91EF91BF91AF919F918F91A9
S1130CC07F916F915F914F913F912F910F900FBE44
S1130CD00F901F9018951F920F920FB60F92112428
S1130CE02F933F934F935F936F937F938F939F9330
S1130CF0AF93BF93EF93FF93E0915F01F091600195
S1130D00309709F00995FF91EF91BF91AF919F91B1
S1130D108F917F916F915F914F913F912F910F90A0
S1130D200FBE0F901F901895813059F038F0823023
S1130D3059F0833099F483B788600CC083B7877FF8
S1130D4005C083B7877F06C083B7886083BF83B736
S1130D508F7B03C083BF83B7806483BF83B7887FDF
S1130D6083BF83B7682B63BF0895813049F028F0AF
S1130D70823061F0833069F0089583B78F7E02C0BA
S1130D8083B7806183BF83B78F7D08C083B78F7EAD
S1130D9002C083B7806183BF83B7806283BF089535
S1130DA01F920F920FB60F9211242F933F934F93DC
S1130DB05F936F937F938F939F93AF93BF93EF93BF
S1130DC0FF93E0917301F0917401309709F0099554
S1130DD0FF91EF91BF91AF919F918F917F916F910F
S1130DE05F914F913F912F910F900FBE0F901F90E5
S1130DF018951F920F920FB60F9211242F933F93C1
S1130E004F935F936F937F938F939F93AF93BF930E
S1130E10EF93FF93E0917101F0917201309709F023
S1130E200995FF91EF91BF91AF919F918F917F9120
S1130E306F915F914F913F912F910F900FBE0F9043
S1130E401F90189590E08031910508F05CC0FC017A
S1130E50E65DFF4F0C9493098FB58E7F02C08FB56A
S1130E6081608FBD8FB58D7F8FBD8EB5877F8EBD21
S1130E708EB58F7E47C08FB58E7F02C08FB58160DF
S1130E808FBD8FB58260F0CF8FB58E7F02C08FB5D6
S1130E9081608FBD8FB58D7F8FBD8EB58860E7CFA4
S1130EA08FB58E7F02C08FB581608FBD8FB5826094
S1130EB0F3CF8FB58E7F02C08FB581608FBD8FB5A4
S1130EC08D7F08C08FB58E7F02C08FB581608FBDC6
S1130ED08FB582608FBD8EB5877F11C08FB58E7F31
S1130EE08FBD8FB58D7F08C08FB58E7F02C08FB543
S1130EF081608FBD8FB582608FBD8EB588608EBDD9
S1130F008EB580618EBD8EB5887F8EBD8EB5682B03
S1130F106EBD0895813049F028F0823061F083304D
S1130F2069F008958FB58F7B02C08FB580648FBD43
S1130F308FB58F7708C08FB58F7B02C08FB5806463
S1130F408FBD8FB580688FBD0895813049F028F03A
S1130F50823061F0833069F008958FB58F7E02C0CE
S1130F608FB580618FBD8FB58F7D08C08FB58F7EA3
S1130F7002C08FB580618FBD8FB580628FBD08952B
S1130F801F920F920FB60F9211242F933F934F93FA
S1130F905F936F937F938F939F93AF93BF93EF93DD
S1130FA0FF93E0916B01F0916C01309709F0099582
S1130FB0FF91EF91BF91AF919F918F917F916F912D
S1130FC05F914F913F912F910F900FBE0F901F9003
S1130FD018951F920F920FB60F9211242F933F93DF
S1130FE04F935F936F937F938F939F93AF93BF932D
S1130FF0EF93FF93E0916901F0916A01309709F052
S11310000995FF91EF91BF91AF919F918F917F913E
S11310106F915F914F913F912F910F900FBE0F9061
S11310201F9018951F920F920FB60F9211242F93B1
S11310303F934F935F936F937F938F939F93AF935C
S1131040BF93EF93FF93E0916701F09168013097AC
S113105009F00995FF91EF91BF91AF919F918F9105
S11310607F916F915F914F913F912F910F900FBEA0
S11310700F901F9018951F920F920FB60F92112484
S11310802F933F934F935F936F937F938F939F938C
S1131090AF93BF93EF93FF93E0916501F0916601E5
S11310A0309709F00995FF91EF91BF91AF919F910E
S11310B08F917F916F915F914F913F912F910F90FD
S11310C00FBE0F901F901895813059F038F0823080
S11310D071F0833091F485B580640BC085B58F7B46
S11310E002C085B5806485BD85B5877F05C085B59B
S11310F08F7B85BD85B5886085BD85B5887F85BDB9
S113110085B5682B65BD08959093700180936F0138
S113111008951F920F920FB60F9211242F933F93AD
S11311204F935F936F937F938F939F93AF93BF93EB
S1131130EF93FF93E0916F01F0917001309709F004
S11311400995FF91EF91BF91AF919F918F917F91FD
S11311506F915F914F913F912F910F900FBE0F9020
S11311601F9018951F920F920FB60F9211242F9370
S11311703F934F935F936F937F938F939F93AF931B
S1131180BF93EF93FF93E0916D01F0916E0130975F
S113119009F00995FF91EF91BF91AF919F918F91C4
S11311A07F916F915F914F913F912F910F900FBE5F
S11311B00F901F9018958091810190918201A091C8
S11311C08301B0918401813020E89207A105B10523
S11311D020F18091750190917601019690937601AA
S11311E080937501A0E0B0E040917B0150917C01B7
S11311F060917D0170917E0184179507A607B7075A
S1131200D1F410927601109275018091770190913A
S11312107801A0917901B0917A0127E0B695A7955C
S1131220979587952A95D1F7819584BDE0917F01A3
S1131230F0918001099408950F931F9350938001B6
S113124040937F01A8EEB3E09B01AC010E94A80982
S11312506093810170938201809383019093840150
S1131260613020E872078105910568F4DC01CB0147
S113127067E0B695A795979587956A95D1F7682FF6
S1131280619564BD2AC08B019C011F7722273327F7
S113129000937701109378012093790130937A01B8
S11312A0DC01CB014FE0B695A795979587954A95B4
S11312B0D1F70196A11DB11D80937B0190937C0110
S11312C0A0937D01B0937E0157E03695279517953D
S11312D007955A95D1F7019504BD8BED98E01F91C0
S11312E00F910C948408991B79E004C0991F9617F8
S11312F008F0961B881F7A95C9F780950895AA1B54
S1131300BB1B51E107C0AA1FBB1FA617B70710F0EC
S1131310A61BB70B881F991F5A95A9F7809590951E
S1131320BC01CD010895EE0FFF1F0590F491E02D4F
S11313300994A29FB001B39FC001A39F700D811DAA
S11313401124911DB29F700D811D1124911D0895CA
S11313500E949909A59F900DB49F900DA49F800DA4
S10D1360911D11240895F894FFCFA5
S113136A5501DF00D300C2009C00A200A900AE0010
S113137AB500BC00C700CD00D900E300E800EE00C8
S113138A434F4C4F52003C3C5247423E3E00536846
S113139A6F77726F6F6D204D6F64650057484954BB
S11313AA450059454C4C4F57004359414E004F5242
S11313BA414E474500505552504C45004C49474808
S11313CA545F424C55450042524F574E004C4947D0
S11313DA48545F475245454E004C494748545F526A
S11313EA4544004752415900424C41434B0050493D
S11313FA4E4B000100000000000001000000000044
S113140A00000000020002020002020000020200C0
S113141A000101020103040506FF000000FF0000A9
S113142A00FFFFFFFFFFFF0000FFFFFF66008000D1
S113143A8000008099330000800080000080808052
S109144A000000FF808099
S9030000FC
